:100000000C947C010C949B010C949B010C949B011F
:100010000C949B010C949B010C949B010C949B01F0
:100020000C949B010C949B010C949B010C949B01E0
:100030000C949B010C94210A0C949B010C945C057C
:100040000C949A110C94D0110C9413060C941E0667
:100050000C9429060C949B010C949B010C949B011D
:100060000C9470050C9414080C949B010C94970844
:100070000C949B010C949B010C949B010C94EE0935
:100080000C94CD090C94D8090C94E3090C94010A42
:100090000C94B0090C949B010C94C2090C949B0124
:1000A0000C949B010C949B010C949B010C949B0160
:1000B0000C949B010C949B010C949B010C949B0150
:1000C0000C949B010C949B010C949B018F14C21403
:1000D0004215DE15131642163E170B180319671842
:1000E0007B180A19EB19131A151A201A5B1A8714B0
:1000F0009E1A00002110422063308440A550C66043
:10010000E770088129914AA16BB18CC1ADD1CEE1D4
:10011000EFF13112100273325222B5529442F7724B
:10012000D662399318837BB35AA3BDD39CC3FFF324
:10013000DEE36224433420040114E664C774A4445B
:1001400085546AA54BB528850995EEE5CFF5ACC574
:100150008DD55336722611163006D776F66695562B
:10016000B4465BB77AA719973887DFF7FEE79DD7C4
:10017000BCC7C448E5588668A778400861180228BB
:100180002338CCC9EDD98EE9AFF9488969990AA914
:100190002BB9F55AD44AB77A966A711A500A333A8B
:1001A000122AFDDBDCCBBFFB9EEB799B588B3BBB64
:1001B0001AABA66C877CE44CC55C222C033C600C1B
:1001C000411CAEED8FFDECCDCDDD2AAD0BBD688DB4
:1001D000499D977EB66ED55EF44E133E322E511E6B
:1001E000700E9FFFBEEFDDDFFCCF1BBF3AAF599F04
:1001F000788F8891A981CAB1EBA10CD12DC14EF1A4
:100200006FE18010A100C230E32004502540467009
:100210006760B9839893FBA3DAB33DC31CD37FE334
:100220005EF3B1029012F322D23235421452776259
:100230005672EAB5CBA5A89589856EF54FE52CD504
:100240000DC5E234C324A0148104667447642454A9
:100250000544DBA7FAB79987B8975FE77EF71DC714
:100260003CD7D326F2369106B016576676761546F9
:1002700034564CD96DC90EF92FE9C899E9898AB964
:10028000ABA94458654806782768C018E108823849
:10029000A3287DCB5CDB3FEB1EFBF98BD89BBBAB74
:1002A0009ABB754A545A376A167AF10AD01AB32A99
:1002B000923A2EFD0FED6CDD4DCDAABD8BADE89DC4
:1002C000C98D267C076C645C454CA23C832CE01CE9
:1002D000C10C1FEF3EFF5DCF7CDF9BAFBABFD98F54
:1002E000F89F176E367E554E745E932EB23ED10E39
:1002F000F01E00020E060C0411241FBECFEFD1E247
:10030000DEBFCDBF12E0A0E0B2E0ECE7FEE300E02C
:100310000BBF02C007900D92A431B107D9F716E0C8
:10032000A4E1B2E001C01D92A53CB107E1F70E9433
:10033000EF1A0C943D1F0C9400008FB7F894992786
:1003400008958FBF08958FB7F894992722B132E0AE
:10035000232722B98FBF0895FC01818199278073DB
:100360009070816498688183892F9927828308958A
:10037000282F9FB7F894E82FFF27E755FD4F80817E
:100380008F3F81F4E091B906E21771F40BC020931E
:10039000E30504C0FF27E755FD4F20832093B906EE
:1003A00020E007C025E005C08091E3058F3F91F76D
:1003B000EECF892F99278FBF822F99270895882301
:1003C00019F08CB5806402C08CB58F7B8CBD08950C
:1003D000882319F08CB5806802C08CB58F778CBDEE
:1003E00008950F931F9380E00E94DF010FB7F894E8
:1003F0001127229A2398219A209A8CB580618CBD6E
:1004000080E00E94E8018CB5877F8CBD8CB58B7F26
:100410008CBD81E00E94DF018DB581608DBD8CB502
:100420008C7F8CBD0FBF1F910F910895FB0121E0C0
:1004300030E002C0220F331F8A95E2F784A5822B99
:1004400084A708958FB7F8942091540330915503F1
:100450004091560350915703E0918400F09185003C
:10046000B09B08C02F5F3F4F4F4F5F4FE09184001C
:10047000F091850099278FBFC901772766279F01D3
:1004800044275527622B732B842B952B0895FC0151
:1004900082819927982F882721813327822B932BBC
:1004A00075E0969587957A95E1F78170907008953B
:1004B000AC01EFB7F8942091840030918500C90118
:1004C000841B950B03968617970720F0B9016D5F83
:1004D0007F4F02C0640F751F6115710511F461E053
:1004E00070E061507040709389006093880082E0F2
:1004F00086BB80916F00826080936F008E2F99275A
:100500008FBF0895CF93DF93EC010E9447028823A9
:1005100039F18A8129819927982F88273327822BBF
:10052000932B87749C7C81549848D1F48F814E81A1
:100530002FB7F894332760910202709103022FBF06
:1005400020E09927982F88275527842B952B8617ED
:10055000970709F021E081E02827822F992702C020
:1005600080E090E0DF91CF910895FB0121E030E041
:1005700002C0220F331F8A95E2F784A582239927B0
:100580000895EF92FF920F931F937C018FB7F89419
:1005900099270091EA031091EB030F5E1E4F109311
:1005A000EB030093EA03015111408FBF87E00E94E3
:1005B000B801C801B7010E94971E8A5D9E4F1F9126
:1005C0000F91FF90EF9008951F93982F1FB7F89405
:1005D00080911402823099F580910702891779F58C
:1005E0008091050220E030E08F3F11F421E030E0FF
:1005F000232BF1F49FEF909307028F3F19F42FEF15
:1006000030E00DC0282F3327F901ED53FD4F8081D5
:10061000809305028F3F11F49093060290832093FC
:10062000C00281E08093140283E00E94B80105C0FB
:100630008FEF809307021092140221E001C020E0A6
:10064000812F99278FBF90E0213009F491E081E05C
:100650009827892F99271F9108958FB7F894282FED
:100660003327922F8091E7038A3041F08091C902AD
:10067000843021F02FBF89E090E008959FBF8CE087
:100680000E94B80180E090E008958091E7038A30ED
:1006900021F48091C902843021F081E08093160218
:1006A00008958DE00E94B8011092160208952FB7A8
:1006B000F89433278093C600E0ECF0E080818064FA
:1006C00080832FBF0895FC016115710519F481E045
:1006D00090E008958091DD029091DE02892B19F05F
:1006E00085E090E008957093FD036093FC03F09320
:1006F000DE02E093DD021092CB021092CA0281E08A
:100700008093CC028091C00080648093C00080916F
:10071000C10080648093C100808121E030E030938B
:10072000CB022093CA020E94570380E090E0089514
:100730008FB7F8949927209127022E7F20932702C4
:100740002EE72093BC028FBF61E070E08CEB92E05B
:100750000E946303992708951F931FB7F89480910F
:10076000B306882341F48BE00E94B801882319F472
:1007700081E08093B306812F99278FBF1F91089541
:100780000F931F93982F1FB7F89480911502823012
:1007900099F580910A02891779F58091080220E085
:1007A00030E08F3F11F421E030E0232BF1F49FEF94
:1007B00090930A028F3F19F42FEF30E00DC0282FDD
:1007C0003327F901E752FD4F8081809308028F3F64
:1007D00011F49093090290832093DC0281E08093CE
:1007E00015028AE00E94B80105C08FEF80930A02CB
:1007F0001092150201E001C000E0812F99278FBF00
:100800001FB7F89480911502882311F40E94DF012C
:10081000812F99278FBF90E0013009F491E081E0AA
:100820009827892F99271F910F9108957FB7F894E2
:100830006091B2002091A4023091A5024091A602DD
:100840005091A702B99B11C08091B3009091B20062
:10085000280F311D411D511D2F5F3F4F4F4F5F4FDF
:10086000290F311D411D511D04C0260F311D411D91
:10087000511D872F99278FBFCA01B9010895FC0127
:1008800080818D5099270895FC01635F60830895EE
:100890006D3118F080E090E008950C960895AF92C5
:1008A000BF92CF92DF92EF92FF920F931F93FC01C2
:1008B000E0A4F1A402A513A50E9422025B016C0131
:1008C0000E941604EA18FB080C091D094AE0159558
:1008D0000795F794E7944A95D1F7E60EF71E081F9F
:1008E000191FC801B7011F910F91FF90EF90DF9082
:1008F000CF90BF90AF9008951F93CF93DF939C014B
:100900001FB7F89480914303882311F0E90126C0B2
:1009100080916F02E82FFF27EE0FFF1FE45AFC4F74
:10092000C081D181318320838F5F80936F028A30B1
:1009300010F010926F0290916F02809170029817E0
:1009400019F481E0809343038091DA02882331F423
:1009500082E00E94B80181E08093DA02812F99271A
:100960008FBFCE01DF91CF911F910895DF92EF925B
:10097000FF920F931F938FB7F894282F3327D22E0F
:100980009091B3008091B20047B3981711F041FFE6
:1009900002C02FBF71C08091CE028823E1F10E9476
:1009A0001604E0906902F0906A0200916B021091C7
:1009B0006C02209118063091190640911A06509148
:1009C0001B066E197F09800B910B62177307840752
:1009D000950720F01092CE0271E01EC02E0D3F1D33
:1009E000401F511F8091A4029091A502A091A602E0
:1009F000B091A702281B390B4A0B5B0B273E310530
:100A00004105510540F4822F223010F070E005C0FE
:100A100070E082E002C070E086EE682F6150809145
:100A2000B60083FDFCCF8091B200681709F46F5FB8
:100A30002091A4023091A5024091A6025091A702F4
:100A4000DA01C9010196A11DB11D860F911DA11DDD
:100A5000B11D82179307A407B50710F4622F6095A4
:100A60008091B60083FDFCCF6093B300DFBE772397
:100A700019F080E00E94B8011F910F91FF90EF9054
:100A8000DF900895AFB7F894BB27E1E0E093CE0282
:100A90006093690270936A0280936B0290936C0278
:100AA000209318063093190640931A0650931B069C
:100AB000AFBF0E94B60408951F920F920FB60F9217
:100AC00011248F938091B0008093B0008091B60084
:100AD00081FDFCCF8F910F900FBE0F901F90189546
:100AE0001F920F920FB60F9211240F931F932F9303
:100AF0003F934F935F936F937F938F939F93AF93A6
:100B0000BF93CF93DF93EF93FF932EB5E091E10373
:100B1000F091E203309739F080914C0390914D03AE
:100B2000E80FF91F208380914C0390914D030196AB
:100B300090934D0380934C0380E00E94E801C091A4
:100B40004C03D0914D0320912A0230912B02C21701
:100B5000D30708F042C00091AE061091AF06409155
:100B6000E1035091E203CE010A962817390708F4F1
:100B7000C901DA01AC0FBD1FF801EC0FFD1F9C018C
:100B80002150304015C00115110531F080818EBD16
:100B90000DB407FEFDCF04C01EBC0DB407FEFDCF93
:100BA0008EB54115510509F08C9321961196319619
:100BB000C217D30740F381E00E94E8010115110537
:100BC00031F00C0F1D1FF80180818EBD01C01EBCCD
:100BD000D0934D03C0934C0311C01092E2031092C6
:100BE000E1031092AF061092AE0610922B02109203
:100BF0002A0210924D0310924C038EB5FF91EF9193
:100C0000DF91CF91BF91AF919F918F917F916F9124
:100C10005F914F913F912F911F910F910F900FBEB8
:100C20000F901F90189578941F920F920FB60F9205
:100C300011240F900FBE0F901F90189578941F925B
:100C40000F920FB60F9211240F900FBE0F901F90AE
:100C5000189578941F920F920FB60F9211242F932C
:100C60003F938F939F93AF93BF932FB7F8943327FE
:100C70008091540390915503A0915603B09157036E
:100C80000196A11DB11D8093540390935503A09329
:100C90005603B09357032FBFBF91AF919F918F9190
:100CA0003F912F910F900FBE0F901F901895E2EF7C
:100CB000F0E06927660FF11DE60FF11DC895982F2A
:100CC000802D3196C89590250895982F8091220205
:100CD000882389F5992379F531E0309322028091B8
:100CE0000B028093230220911702822F8170809340
:100CF000A00280911002909111029093250280939E
:100D00002402809118028093260232273170267EB9
:100D1000E32FFF27EE0FFF1FE45FFD4F80819181DE
:100D20009093110280931002232B2093170280E1ED
:100D30000E94B80108958091170280FF02C08B7F46
:100D400001C08D7F8093170208950F931F93082F82
:100D5000162F8091C9028130D9F0813038F082306D
:100D600009F44AC0833009F028C159C0002309F4AE
:100D700058C11092F5031092F4031092ED031092F3
:100D800008041092CD02109259031092580339C1F1
:100D9000002309F046C180915803909159030E94A5
:100DA0005706909359038093580382E08093C902B9
:100DB00010930804143409F000C125C18695869566
:100DC00003C0809117028695817009F0F6C080916A
:100DD0001702992311F0846001C08260809317028A
:100DE00080911702877E8860809317021092180204
:100DF0008FEF80930B0215C1002309F0DEC06093D2
:100E0000CD0280915803909159030E945706909308
:100E100059038093580383E08093C90202C18091F3
:100E2000ED038F3F09F4C9C0002309F461C082308B
:100E300008F4C3C0E091F403EE2309F4EBC04E2F95
:100E40004150E42FFF27EC50FC4F82819927382F27
:100E50002227442311F4E2E002C0E42FE150FF27EF
:100E6000EC50FC4F82819927282B392B8091580315
:100E7000909159032817390709F09FC080E00E941C
:100E800065063091CD028091440320914503982F4F
:100E90009F5F963008F090E0921771F0E82FFF27DF
:100EA000EC5BFC4F32838F5F80934403863010F0FD
:100EB000109244030E94AC031092F5031092F403C5
:100EC00094E09093C9021092ED03109208041092DE
:100ED000CD021092590310925803809127028D7F02
:100EE0008093270280911602882309F49AC084C057
:100EF000823008F44EC0E091F503FF27EC50FC4F20
:100F00008281482F5527342F20911702822F8695F2
:100F100086958695837099278130910519F00297FF
:100F2000F9F40EC0277E206120931702442311F4A8
:100F300085E001C080E08093180230930B0210C05E
:100F4000809118028F3260F4E0911002F09111024A
:100F5000E80FF11D4083809118028F5F8093180283
:100F60008091F503E82FFF27EC50FC4F62818F5FE3
:100F70008093F503833010F01092F503772780916A
:100F80005803909159030E945706909359038093F8
:100F900058038091F403E82FFF27EC50FC4F128395
:100FA0008F5F8093F403833010F01092F4038091EC
:100FB000ED038F5F8093ED0334C01092F503109220
:100FC000F40314E01093C9021092ED031092080488
:100FD0001092CD021092590310925803809127026B
:100FE0008D7F8093270281E00E9465068091160222
:100FF000882329F01093C9020E94450312C00023E0
:1010000081F081E009CF80911702982F917080FDC7
:10101000D5CED7CE8091F8039927382F222742E0EA
:101020001CCF1F910F9108951F920F920FB60F9230
:1010300011242F933F934F935F936F937F938F93DD
:101040009F93AF93BF93EF93FF938091C00087FF6F
:1010500042C06091C600E0915A03F0915B03309763
:1010600019F18091B1069091B206E80FF91F6083E3
:1010700001969093B2068093B1062091BE063091FE
:10108000BF068217930738F110925B0310925A0340
:101090008091E6038330F9F08091C1008F778093CF
:1010A000C1001092E60317C06E3719F460E081E0CA
:1010B00010C0809127026D3721F48260809327024F
:1010C0000AC081FF05C08D7F8093270280E26827D8
:1010D00080E00E94A506FF91EF91BF91AF919F9193
:1010E0008F917F916F915F914F913F912F910F90D1
:1010F0000FBE0F901F901895982F8D57823068F46F
:101100008091270281608093270280E28927809363
:10111000EC038DE78093BC0202C09093BC0261E0B7
:1011200070E08CEB92E00E94630399270895789415
:101130001F920F920FB60F921124FF920F931F93DD
:101140002F933F934F935F936F937F938F939F93CF
:10115000AF93BF93CF93DF93EF93FF932091CA0296
:101160003091CB028091FC039091FD032817390741
:1011700080F4E091DD02F091DE02E20FF31F808146
:101180002F5F3F4F3093CB022093CA020E94570338
:10119000D1C01092DE021092DD021092CC0280913A
:1011A000C1008F7B8093C100FFB6F8948091270225
:1011B00080FF0EC08E7F809327028091EC03809386
:1011C000BC0261E070E08CEB92E00E946303AFC070
:1011D0008091E703843009F48CC0853040F482307C
:1011E00021F18330B8F5813009F09CC00DC0863004
:1011F00009F48DC0863008F483C0873009F48EC0AE
:10120000883009F08FC091C08091DB020E947C0879
:10121000082F83E08093E7036091DB028091BC0696
:101220009091BD060E94570610C0809116060E943C
:101230007C08082F83E08093E70360911606809175
:10124000BC069091BD060E9457069093BD06809300
:10125000BC0666C0E0917003FF27EE0FFF1FEF5141
:10126000FD4F80810E947C08082F10917003C12FD0
:10127000DD27FE01EE0FFF1FEF51FD4F60818091D2
:10128000BC069091BD060E9457069093BD068093C0
:10129000BC062091D8022F5F2093D802113039F577
:1012A00080911E02E0911902F0911A02E80FF11DDF
:1012B000E0818F5F80931E0290911D02981730F499
:1012C00082E08093E20240E050E002C04E2F5527BA
:1012D000DE01AA0FBB1FFD01E052FD4F808182306D
:1012E00031F02F3F21F0AF51BD4F4C9319C084E036
:1012F00012C08091BC060E947C08082F85E00BC0BC
:101300008091BD060E947C08082F86E004C00E94E0
:101310009803082F87E08093E70302C088E003C0AA
:10132000002329F089E08093E7030E94AC038F2D0E
:1013300099278FBFFF91EF91DF91CF91BF91AF912F
:101340009F918F917F916F915F914F913F912F91DD
:101350001F910F91FF900F900FBE0F901F90189547
:101360001F920F920FB60F9211248F938091C80095
:1013700087FF02C08091CE008F910F900FBE0F901B
:101380001F90189578941F920F920FB60F92112408
:101390000F900FBE0F901F90189578941F920F9288
:1013A0000FB60F9211240F900FBE0F901F9018953B
:1013B00078941F920F920FB60F9211240F900FBEC8
:1013C0000F901F90189578941F920F920FB60F925E
:1013D00011240F900FBE0F901F90189578941F92B4
:1013E0000F920FB60F9211248F939F9380919600C6
:1013F000909197009F918F910F900FBE0F901F902B
:10140000189578941F920F920FB60F9211242F9374
:101410003F938F939F932FB7F89433278091D402F3
:101420009091D50201969093D5028093D4022FBF5C
:101430009F918F913F912F910F900FBE0F901F9012
:1014400018951F920F920FB60F9211242F933F936E
:101450004F935F936F937F938F939F93AF93BF93BC
:10146000EF93FF938091B0008093B0008091B6001D
:1014700081FDFCCF8091B30099270196AA27BB2755
:101480002091A4023091A5024091A6025091A7029A
:10149000280F391F4A1F5B1F2093A4023093A50217
:1014A0004093A6025093A70278940E94B604FF913D
:1014B000EF91BF91AF919F918F917F916F915F91CC
:1014C0004F913F912F910F900FBE0F901F90189545
:1014D00021E02093DF022093E303209184003091E8
:1014E0008500BC01C9010E94580208950F931F9303
:1014F000CF93DF93182F0FB7F894809115028823AC
:1015000011F40E94F101802F99278FBF8FB7F894B3
:10151000C82FDD272C2F80911502882361F481E0EC
:10152000809315021093DC028AE00E94B801CFBFBD
:1015300080E090E021C0E12FFF27E752FD4F80813E
:101540008F3F89F4E0910902E11789F40CC01093F0
:10155000080204C0FF27E752FD4F108310930902D1
:1015600080E090E002C085E090E02FBF05C0809150
:1015700008028F3F79F7EBCFDF91CF911F910F9149
:1015800008958FB7F894282F3327922F80910A025D
:10159000882331F480911502823011F42FBF13C0DB
:1015A0009FBF8FB7F894282F332780911502882387
:1015B00069F482E08093150210920A022FBF0E9404
:1015C000F101209A289A81E090E008952FBF80E0F1
:1015D0000E94760A80E090E008958091C7028230F0
:1015E00031F481E08093C70285E00E94B80108953C
:1015F00080931C06882311F484E001C081E080936D
:10160000C70285E00E94B80108954F925F926F92E1
:101610007F928F929F92AF92BF92CF92DF92EF9282
:10162000FF920F931F93CF93DF932C018091290298
:10163000882309F083C18091B006853009F07EC10E
:101640000E94C10A882309F479C18091F903882393
:1016500009F074C1B20182E00E94B502882311F43E
:1016600090E003C0F20196A59F7080911303981734
:1016700081F090931303289885EC8EBD0DB407FE7E
:10168000FDCF8EB590689EBD0DB407FEFDCF8EB523
:10169000289AE20121968981F201218140E099276F
:1016A000982F88273327822B932B87749C7C815417
:1016B000984809F441E0442301F1289886E88EBD5A
:1016C0000DB407FEFDCF8EB51EBC0DB407FEFDCFD9
:1016D0008EB5289A99278F7190702091D3024091EE
:1016E000C402240F312D311D43E0359527954A95CD
:1016F000E1F7281739070CF421C1289882EC8EBD38
:101700000DB407FEFDCF8EB589E08EBD0DB407FE8A
:10171000FDCF8EB5289A0E9422027B018C01B20176
:1017200084E00E94B502882319F4E0E0F0E006C0EE
:10173000D2018C918550F201E80FF11D289881E8C3
:101740008EBD0DB407FEFDCF8EB51EBC0DB407FED9
:10175000FDCF8EB5289A8F71893079F0289882EC68
:101760008EBD0DB407FEFDCF8EB586E08EBD0DB4E7
:1017700007FEFDCF8EB5289AE1C08FB7F894992760
:101780002F9A20918400309185008FBF2F98289840
:1017900080E68EBDD2019C910DB407FEFDCF8EB5C3
:1017A0009EBD792F7250773010F4672F01C067E02B
:1017B000DE01962F4D910DB407FEFDCF8EB54EBDC7
:1017C0009150C1F76150C60FD11D6F5F21962E1940
:1017D0003F092E553F4F3901882477FC8094982C7F
:1017E0006E0C7F1C801E911E309719F4972F961B4C
:1017F00042C02081E1808281A3809927AA27BB274C
:10180000BA2FA92F982F8827332744275527522FDF
:10181000442733272227FF24002711278701FF248D
:10182000EE242E293F29402B512BBB24CC24DD2430
:101830002A293B294C295D29822B932BA42BB52BDC
:1018400086199709A809B9098383292F3A2F4B2FA5
:10185000552722839D014427552721838B2F9927C4
:10186000AA27BB278083C2CF28810DB407FEFDCFF6
:1018700021968EB52EBD9150B8F70DB407FEFDCF61
:101880008EB5289A289882EC8EBD0DB407FEFDCF48
:101890008EB586E08EBD0DB407FEFDCF8EB5289ABD
:1018A0003097D1F12081E1808281A3809927AA27F6
:1018B000BB27BA2FA92F982F8827332744275527CE
:1018C000522F442733272227FF240027112787017F
:1018D000FF24EE242E293F29402B512BBB24CC245E
:1018E000DD242A293B294C295D29822B932BA42B0B
:1018F000B52B860D971DA81DB91D8383292F3A2F5F
:101900004B2F552722839D014427552721838B2F59
:101910009927AA27BB278083B20181E00E94160283
:10192000F20160A671A682A693A686E08093B00617
:1019300084E08093290280E090E002C085E090E09E
:10194000DF91CF911F910F91FF90EF90DF90CF909B
:10195000BF90AF909F908F907F906F905F904F90CF
:101960000895AF92BF92CF92DF92EF92FF920F93C2
:101970001F93CF93DF938091F903882309F402C169
:101980000E94C10A882309F4FDC08FB7F8949927F3
:10199000C091D602D091D7028FBF1092F903289838
:1019A0008FE88EBD0DB407FEFDCF8EB51EBC0DB405
:1019B00007FEFDCF8EB5289A982F8091290283309B
:1019C00011F0873031F485E08093B00688E0809391
:1019D0002902A92EBB24A2FE63C080912902863071
:1019E00019F41092290203C0882309F059C09430D9
:1019F00009F045C0289886E88EBD0DB407FEFDCFDE
:101A00008EB51EBC0DB407FEFDCFFEB4289A2FE1A3
:101A1000F2228091C402982F96959695EF2DE91B9E
:101A20008E0F8093C40200916D0210916E02F80136
:101A300084A58B7F84A7B80183E00E941602F80179
:101A4000F6A60E9422027B018C01C0906D02D0900C
:101A50006E02B60181E00E941602CE19DF092797B7
:101A6000CE01AA2797FDA095BA2F8E0D9F1DA01F0E
:101A7000B11FF60180A791A7A2A7B3A70EC0E0915E
:101A80006D02F0916E0284A5877F84A7E0916D02BC
:101A9000F0916E0284A58D7F84A785E08093290252
:101AA000A3FE70C080912902843009F04EC085E009
:101AB0008093B006109229028091A302833019F41A
:101AC0001092A3025FC0C091BA06D091BB06CE01AE
:101AD0000E944702882389F18A8129819927982FBA
:101AE00088273327822B932B87749C7C81549848BA
:101AF00021F58F812E819927982F88273327822BD4
:101B0000932B8F5F9F4FC9F090E08091E303882370
:101B100009F491E0992389F012E01093DF0281E04B
:101B20008093E303809184009091850069E973E0DC
:101B30000E9458021093A30225C01092A302109293
:101B4000C80280E00E94F80A1DC08530D9F42091B7
:101B5000D302289886E88EBD0DB407FEFDCF8EB562
:101B60001EBC0DB407FEFDCF8EB5289A8F71922F43
:101B700096959695891B280F2093D30289E0809330
:101B8000290208C090912902992309F4E5C29930ED
:101B900009F012C2289880E28EBD0DB407FEFDCF79
:101BA0008EB51EBC0DB407FEFDCF8EB5482F552750
:101BB000433008F496C3842F99278A970CF091C379
:101BC0001EBCE0916D02F0916E024083542F525082
:101BD000573010F4452F01C047E0DF011196242F44
:101BE000FD0160E070E00DB407FEFDCF8EB51EBCB8
:101BF000992781936827062E6295607F6025072EBE
:101C0000762F62956F700626669576276727660F92
:101C1000660F660F6025215031F74150A40FB11DAA
:101C20004F5F1196E0916D02F0916E02818190E01C
:101C30008770823009F491E0992349F020E030E088
:101C40008091A302823081F421E030E00DC08FB793
:101C5000F894282F332790E08091EE03833008F426
:101C600091E02FBF292F3327232B09F45CC0952F38
:101C7000941B18C00DB407FEFDCF8EB51EBC8C930F
:101C80008D916827062E6295607F6025072E762F3E
:101C900062956F700626669576276727660F660F32
:101CA000660F6025915030F70DB407FEFDCF8EB55D
:101CB0001EBC9B012827022E2295207F2025032E63
:101CC000322F22952F700226269532272327220FA6
:101CD000220F220F20250DB407FEFDCF8EB51EBCAE
:101CE0002827022E2295207F2025032E322F229591
:101CF0002F700226269532272327220F220F220F2C
:101D000020250DB407FEFDCF8EB5E0916D02F09158
:101D10006E0285A7289A15E01093B006109229024A
:101D2000232B31F015C20DB407FEFDCF8EB5D9C2FD
:101D3000E0906D02F0906E0267010894C11CD11C06
:101D4000F701818190E0282F3327277030702230EF
:101D5000310509F491E08091A302992321F18230A9
:101D600009F025C1F7019381E091BA06F091BB0615
:101D70008381981709F01BC12230310509F017C182
:101D800080916F008D7F80936F001092E303BF01FD
:101D900080E00E9416021092A3021092C80280E016
:101DA0000E94F80A04C18823C9F4C7010E94820274
:101DB0008823A1F01093140382E0809315031092FE
:101DC0001603F70183818093170384E193E00E9457
:101DD000050B882319F483E08093A302009184000B
:101DE00010918500C7010E948202882311F0045ED1
:101DF0001C4F10934F0300934E03809184009091E9
:101E000085009801281B390B12161306A4F4809143
:101E1000C802882369F490E08091E303882309F4E1
:101E200091E0992341F0C9010E94680A80E801C04D
:101E300080688093C802F601808527819927582FF2
:101E400044273327422B532B8091A802282F332776
:101E5000F901EE0FFF1FE250FC4F808191817091DC
:101E6000E4038417950769F4F901EC54F94F808174
:101E7000871709F467C0872F8F5F8093E4038083FF
:101E80001DC000E010E080E090E0CEEFD3E0E4EB96
:101E9000F6E0DF01682F9C018881998184179507FE
:101EA00079F42093A8029091E4038C91891709F4A6
:101EB00049C0892F8F5F8093E4038C9300E829C089
:101EC0008081972F981B091710F4092F122F6F5F2D
:101ED000C901019611962296319685309105D1F669
:101EE0006530B9F41093A802A12FBB27FD01EE0FB6
:101EF000FF1FE250FC4F518340838091E4038F5FCA
:101F00008093E403FD01EC54F94F8083A054B94F52
:101F10001C929091E403892F8F778F3779F40F37D4
:101F200068F0E4EBF6E0292F207880818F67891331
:101F30002083319686E0E93BF807B9F78091A80243
:101F4000282F3327F6019281A22FBB27FD01E054F1
:101F5000F94F808180FF07C0FD01E151FC4F808176
:101F6000981729F102C081608083A151BC4F9C93D6
:101F7000DFB6F8948091EE038330B0F4E09115065B
:101F8000E80FE33008F0E350FF27EE0FFF1FE55A9C
:101F9000FD4F00811181F182E0828F5F8093EE031B
:101FA00086E00E94B80178018D2D99278FBFF092AD
:101FB0006E02E0926D02C3C0892F8150833008F019
:101FC0009CC081508230E0F43091B0063130C1F4D1
:101FD00020E08091E303882309F421E0222381F0AB
:101FE0002F9883E08093DF023093E3038091840095
:101FF000909185006BE273E00E94580282E068C015
:10200000933009F042C08091B006833009F097C048
:102010000E94C10A8823C9F128988FE88EBD0DB4AB
:1020200007FEFDCF8EB51EBC0DB407FEFDCF8EB5ED
:10203000289A8091810080648093810080E286BB31
:1020400080916F00806280936F009091BF0228980A
:1020500088EC8EBD0DB407FEFDCF8EB590669EBD9B
:102060000DB407FEFDCF8EB5289A289882EC8EBD60
:102070000DB407FEFDCF8EB586E08EBD0DB407FE14
:10208000FDCF8EB5289A84E023C08091290281502B
:10209000823000F58091B0068530E1F40E94C10ADB
:1020A0008823C1F0289882EC8EBD0DB407FEFDCFC9
:1020B0008EB583E08EBD0DB407FEFDCF8EB5289A98
:1020C00080916F008F7D80936F001092F90383E001
:1020D0008093B00690912902913041F48091B0062E
:1020E0008330B1F52F9A9093B00625C0923039F520
:1020F0008091B006833061F51EC0973001F50E94D3
:10210000C10A8823E1F09091BF02289888EC8EBD27
:102110000DB407FEFDCF8EB590669EBD0DB407FED3
:10212000FDCF8EB5289A8091B006853021F484E0E9
:102130008093B00604C088E08093290204C0809197
:102140002902883029F41092290284E00E94B80103
:1021500080912902882309F58091B0068530D1F459
:102160008091F9038823B1F48091A302882391F42C
:102170008091C802882371F490E08091E303882362
:1021800009F491E0992331F00E94ED0A809129022F
:10219000882319F488E00E94B8018091E30382301B
:1021A00009F092C01092E303F090DF02F2E0FF1614
:1021B00009F466C023E0F21609F46AC081E0F8165B
:1021C00009F082C020914E0330914F03809184002A
:1021D000909185004091C802403829F41092C802BD
:1021E0000E94ED0A71C08901081B190B47FF03C04B
:1021F00010161106ECF0C091C502D091C602809174
:10220000A3028823A9F4CE010E94050B99278823F5
:1022100051F48CA58E7F8CA7F092A302D093BB06BD
:10222000C093BA0629C09927F82E882329F102C045
:1022300065E0F62E2091C802822F99278F770197AB
:1022400059F4207822602093C80280E198E00E942F
:10225000C1020E94680A38C027FF0AC01016110682
:102260003CF480E88093C802C8010E94680A02C05A
:102270001092C8028F2D09C083E08093C80224C049
:102280001092A3021092C80280E00E94F80A1CC0BB
:102290008091B006823019F4F092B00613C080919C
:1022A0002902863079F410922902289881E88EBD9F
:1022B0000DB407FEFDCF8EB51EBC0DB407FEFDCFDD
:1022C0008EB5289A0E9486118FB7F894282F33274D
:1022D0008091BE02813061F081E08093BE022FBF09
:1022E0004ACB289A85E08093B0061092290230CF1D
:1022F0001092BE022FBFDF91CF911F910F91FF90DF
:10230000EF90DF90CF90BF90AF9008958FB7F89483
:10231000282F33278091BE02882329F0806880937C
:10232000BE022FBF089581E08093BE022FBF0E949E
:10233000B10C089578941F920F920FB60F9211244A
:102340002F933F934F935F936F937F938F939F93BD
:10235000AF93BF93EF93FF93E6E8F0E08081918124
:10236000208131818FB7F89499273093D702209339
:10237000D60221E02093F9038FBF0E948611FF91BE
:10238000EF91BF91AF919F918F917F916F915F91ED
:102390004F913F912F910F900FBE0F901F90189566
:1023A00078941F920F920FB60F9211242F933F93A0
:1023B0004F935F936F937F938F939F93AF93BF934D
:1023C000EF93FF9380916F008D7F80936F007894DF
:1023D0009FB7F8948091E303813019F482E08093F1
:1023E000E303892F99278FBF0E948611FF91EF91F8
:1023F000BF91AF919F918F917F916F915F914F911D
:102400003F912F910F900FBE0F901F9018958FB78F
:10241000F894282F33278091BE0281508093BE020A
:10242000803811F02FBF089581E08093BE022FBF46
:102430000E94B10C08951F938FB7F89499272091AB
:10244000BE022F5F2093BE028FBF8091C7028823F8
:1024500011F015E023C0809129028823E1F48091D6
:10246000B006813049F490E08091E303882309F4B9
:1024700091E0992381F005C0853019F489E090E05E
:102480000CC083E0809329020E94861185E080932E
:10249000C70210E003C085E090E0182F0E940712E9
:1024A000812F99271F9108951F93FC018FE3828745
:1024B000809128028F5F8093280283832FB7F8943E
:1024C00033278091BE028F5F8093BE022FBF809121
:1024D000C702882311F015E00DC0F093E903E093E3
:1024E000E80381E08093C7021092E50385E00E9433
:1024F000B80110E00E940712812F99271F910895BB
:10250000EF92FF920F931F93CF93DF93082F7B01DE
:10251000EA01122F2D3118F086E090E085C08A8103
:10252000298140E09927982F88273327822B932BE6
:1025300087749C7C8154984809F441E0442319F441
:10254000CE010E94AC01135F18832FB7F894332794
:1025500080910202909103022FBF8887892F9927CB
:1025600089872FB7F8943327809104022FBF9927CA
:102570008C831D820B87EE828F2D99278F838FB7D7
:10258000F894282F332780911402882371F482E075
:1025900080931402109207022FBFCE010E945412A2
:1025A0009927182F882399F00FC02FBFD093C2020C
:1025B000C093C1028FB7F894C82FDD272C2F8091CC
:1025C0001402882399F406C080E00E94E402812F5F
:1025D00099272AC081E0809314021092C00283E000
:1025E0000E94B801CFBF80E090E01EC08091C3027E
:1025F0008F3F89F4E0910602EE2369F010C010923B
:10260000050204C0FF27ED53FD4F10821092060211
:1026100080E090E002C085E090E02FBF05C080918F
:1026200005028F3F79F7EBCFDF91CF911F910F918B
:10263000FF90EF900895CF93DF93582FFB018230E6
:1026400018F081E090E033C0C82FDD27CC0FDD1FEC
:10265000C05BDC4F88819981892B19F085E090E07F
:1026600026C079836883435F40834D508091120276
:10267000823018F480E090E01AC083856781772764
:10268000762F662726813327622B732B50931202F5
:10269000242FAF010E9480129927282F882329F028
:1026A00082E08093120219821882822F9927DF918B
:1026B000CF910895AF92BF92CF92DF92EF92FF92A7
:1026C0000F931F935B016C016091790361FF20C040
:1026D0002091710330917203409173035091740300
:1026E000E0907503F09076030091770310917803E2
:1026F000D601C501821B930BA40BB50B8E159F054C
:10270000A007B10728F0E1E7F3E0A0E0B0E022C0C5
:10271000EAE7F3E06091820361FF5BC020917A03F6
:1027200030917B0340917C0350917D03E0907E03C8
:10273000F0907F030091800310918103A21AB30AE5
:10274000C40AD50AAE14BF04C006D10608F441C0BD
:10275000A1E0B0E060FF04C080858D7F808708C065
:102760002E0D3F1D401F511F208331834283538311
:10277000AA2379F564E086EE95E00E944804FC0106
:10278000892B39F1809167029091680201969093AC
:102790006802809367028091000290910102818318
:1027A000892F9927808380916702909168028383A3
:1027B000892F992782838FEF8093EC058093ED0515
:1027C00080E88093F10544E066EE75E080E00E94C9
:1027D0001B1381E00E94B8011F910F91FF90EF90B1
:1027E000DF90CF90BF90AF9008950F931F93CF933A
:1027F000DF93082FEB01E82FFF27EE0FFF1FE05BB1
:10280000FC4F11821082809112029927019662E09A
:1028100070E00E94AB1E682F8093120210E0462FDA
:102820005527FA01EE0FFF1FE05BFC4FA081B1813D
:10283000109799F0E62FE695E695E695FF27E95E75
:10284000F94F808199279A012770307002C09595C1
:1028500087952A95E2F780FF0DC0CA01019662E0D4
:1028600070E00E94AB1E682F1F5F1230C1F61093FC
:10287000120219C0609312026230A8F42C912D50FC
:102880003327FD0167817727762F66278681992771
:10289000682B792BAD0183850E948012882319F063
:1028A00082E10E94B801013029F4C157D24011F4ED
:1028B0000E94A301DF91CF911F910F9108952F9254
:1028C0003F924F925F926F927F928F929F92AF92C0
:1028D000BF92CF92DF92EF92FF920F931F93CF930D
:1028E000DF93CDB7DEB729970FB6F894DEBF0FBEE2
:1028F000CDBFE82FFF27E331F10508F03AC6EA59CA
:10290000FF4FEE0FFF1F0590F491E02D0994809189
:102910001706882309F42DC640E011E0EEC580912A
:10292000BD02882361F52091090430910A04409189
:102930000B0450910C04EFB7F894FF2760916902E3
:1029400070916A0280916B0290916C02E09018067F
:10295000F090190600911A0610911B066E0D7F1D4E
:10296000801F911FEFBF2093090430930A04409306
:102970000B0450930C041092BD020E9442050E9469
:1029800016046DC00E9416045B016C018FB7F894A9
:1029900099271092CE028FBF8091790381FF25C0C5
:1029A0008091710390917203A0917303B0917403AD
:1029B000A6019501281B390B4A0B5B0BE0907503B0
:1029C000F09076030091770310917803E21AF30AEE
:1029D000040B150B3FEFE3163FEFF3063FEF030742
:1029E0003FE7130711F061E009C05FEFE52E5FEFED
:1029F000F52E5FEF052F5FE7152F60E080918203D2
:102A000081FF21C080917A0390917B03A0917C0388
:102A1000B0917D03A6019501281B390B4A0B5B0B76
:102A2000DA01C90120917E0330917F034091800338
:102A300050918103281B390B4A0B5B0B2E153F0568
:102A4000400751072CF0662309F493C5A8019701AC
:102A500012161306140615062CF0C601B5010E94C5
:102A60005A1387C52093090430930A0440930B043A
:102A700050930C0481E08093BD02C601B5010E9411
:102A8000420577C58FB7F894282F3327422F9091AE
:102A90006F0280917002981739F480914303882364
:102AA00019F41092DA0264C54FBFE0917002FF275B
:102AB000EE0FFF1FE45AFC4F00811181C8010E94F4
:102AC0003F04482FF80173855781668181852085F1
:102AD0009927982F88273327822B932B34810B5FDC
:102AE0001F4F27E0F80111922A95E9F70550104091
:102AF000F8018087892F992787833287E0917002B8
:102B0000FF27EE0FFF1FE45AFC4F0190F081E02DEC
:102B10004D3108F0CEC4852F9927982F8827262F6E
:102B20003327822B932B8683892F9927858373875D
:102B3000418780911B0290911C02892B09F0B9C436
:102B40002FB7F894332785E080931E0210921F025E
:102B5000F0931A02E093190282E090E090931C0235
:102B600080931B021092210210922002445F409336
:102B70001D022FBF8FB7F894282F33278091E703CA
:102B80008A3011F42FBF15C02FBF9FB7F8948091E2
:102B9000E202882311F020E006C081E08093E20287
:102BA0001092E30221E0892F99278FBF222309F099
:102BB0000FC410921C0210921B027BC42FB7F89412
:102BC00033278091C0028093070282E08093140231
:102BD0002FBF80910702882309F0CBC48091C102E6
:102BE0009091C2020E945412082F1127002309F469
:102BF000C0C480E00E94E4022091C1023091C20270
:102C000080911202823008F0B4C4E82FFF27EE0F43
:102C1000FF1FE05BFC4F608171816217730709F051
:102C2000A8C4402F96C48091C7021092C702853075
:102C300001F50E94160460937103709372038093F0
:102C400073039093740380E094E1A0E0B0E080937C
:102C5000750390937603A0937703B09378038091E4
:102C600079038E7F82608093790381E00E94B801AE
:102C700080C4863009F47DC4873009F47AC4809317
:102C8000C70277C42FB7F89433278091BE028F5FB5
:102C90008093BE022FBF4091C702413081F58091E1
:102CA000E5038F5F8093E503863048F52091E803C4
:102CB0003091E9038091C8028823C1F490E08091AB
:102CC000E303882309F491E0992381F03093C6024D
:102CD0002093C5024093C8028BED91E10E94C1028E
:102CE0000E94680A10921C0683E004C085E080936D
:102CF0001C0682E08093C7020E9407123AC4109219
:102D0000C7020E94071280901C06E090E803F09032
:102D1000E903F70182858F3309F02BC480E00E941C
:102D2000E402EBE0AE2EB12CAE0CBF1C882009F003
:102D300092C00091A1021091A202C8010E94AC01B0
:102D4000F80114A6C7010E943F04182F682F809134
:102D5000A1029091A2020E944404612FC7010E9427
:102D600048046C016090A1027090A202892B09F4C2
:102D700072C0612FC3010E944804AC01892B09F481
:102D80006AC0F701878126819927982F88273327E2
:102D9000822B932BF3018683892F99278783F70151
:102DA00084819927E091A102F091A2028483158287
:102DB000F701818520859927982F88273327822B33
:102DC000932BE091A102F091A2028087892F99278D
:102DD0008187F7018385E091A102F091A2028387A8
:102DE000D601FA0190E003C08D9181939F5F911706
:102DF000D9F76A01C10ED11CF5018081803809F52F
:102E0000B70181E00E94B5028823D9F0C7010E9472
:102E10004F04F6016383272F382F492F552722832C
:102E20009C01442755272183692F772788279927D5
:102E300060831C5F612F8091A1029091A2020E9489
:102E400044048091A1029091A2020E947C0490937C
:102E5000A2028093A10280911202823008F089C3FD
:102E6000E82FFF27EE0FFF1FE05BFC4F60817181B1
:102E70006E157F0509F07DC3482D6BC38FB7F8949D
:102E8000282F33278091EE03882309F471C3E09142
:102E90001506FF27EE0FFF1FE55AFD4F0081118138
:102EA0002FBFF8018285978126818F3309F07DC07D
:102EB00063857081892F9927582F4427822F99275E
:102EC000482B592B8FB7F894992720910202309103
:102ED00003028FBF4217530721F04F5F5F4F09F086
:102EE0003BC3603909F038C3713109F035C3B8010B
:102EF00081E00E94B502882309F42EC3F80186857B
:102F000027859927982F88273327822B932B9093F7
:102F1000620280936102C8010E944F0460936302C1
:102F200070936402809365029093660268E081E783
:102F300092E00E944804FC01892B09F40DC38091A2
:102F40000002909101028183892F992780838091CB
:102F50006102909162028383892F992782838091F5
:102F6000630290916402A0916502B091660287832A
:102F7000292F3A2F4B2F552726839D01442755276C
:102F800025838B2F9927AA27BB2784838AE08093E8
:102F900077021092780281E980937C0248E061E731
:102FA00072E081E00E941B13D7C2892F9927582F06
:102FB0004427822F9927482B592B8FB7F8949927AC
:102FC00020910202309103028FBF4217530719F07C
:102FD0004F5F5F4F21F48FB7F89499278FBF9FB74A
:102FE000F89480911506E82FFF27EE0FFF1FE55A92
:102FF000FD4F118300838F5F80931506833010F09F
:10300000109215068091EE0381508093EE03892F74
:1030100099278FBF33CF2FB72983F8942090CF0201
:103020003090D0024090D1025090D2026624772492
:1030300088240EE4A02E13E8B12ECC24DD24EE2447
:10304000FF2400E010E0222D332D442D552D662D58
:10305000772D882D90E00E94161D2A833B834C8398
:103060005D836E837F8388879987822E932EA42E1B
:10307000B52E2401350100E20E94141EA22EB32EAB
:10308000C42ED52EA30192015695479537952795C5
:103090002A0D3B1D4C1D5D1D57FF05C05F772F5F3F
:1030A0003F4F4F4F5F4F2093CF023093D00240935A
:1030B000D1025093D2026981862F99278FBF8FB793
:1030C000F89499273093EB032093EA0313C08FB74A
:1030D000F89499271092E2031092E1031092AF0640
:1030E0001092AE0610922B0210922A0210924D03FB
:1030F00010924C0300C22FB7F89433278091DC0262
:1031000080930A0282E0809315022FBF80910A0209
:10311000882309F02EC2209A289A8091B00688232D
:1031200009F075C08EEF91E0019701960197E1F7E4
:1031300016982F9886E090E0019701960197E1F7A5
:10314000169A289883EC8EBD0DB407FEFDCF8EB580
:103150001EBC0DB407FEFDCF8EB5289A289882ECD0
:103160008EBD0DB407FEFDCF8EB588E08EBD0DB4CB
:1031700007FEFDCF8EB5289A8EEF91E0019701965C
:103180000197E1F728988EEC8EBD0DB407FEFDCFB8
:103190008EB58DE48EBD0DB407FEFDCF8EB5289A99
:1031A000289889EC8EBD0DB407FEFDCF8EB587EC57
:1031B0008EBD0DB407FEFDCF8EB5289A289885ECFC
:1031C0008EBD0DB407FEFDCF8EB580E88EBD0DB46B
:1031D00007FEFDCF8EB5289A109213038BE08093E3
:1031E000BF02289888EC8EBD0DB407FEFDCF8EB5CA
:1031F0008BE68EBD0DB407FEFDCF8EB5289A2F9AB3
:1032000081E08093B00680E00E94C003B2C10E94BA
:103210008611AFC18FB7F8941092B3062091E703DF
:1032200040E0283009F441E030E0293009F431E091
:10323000442311F4332351F01092E703E09170031B
:10324000FF27EE0FFF1FE052FD4F108299278FBF1F
:10325000442311F4332331F19FB7F894809116067B
:103260008F5F809316068091DB02833479F420917E
:10327000450380914403821779F0822F8F5F8093FA
:103280004503863048F01092450306C0A0E0442371
:1032900009F4A1E071E002C0A0E070E0892F992755
:1032A0008FBF06C0222311F010E06CC0A0E070E0D8
:1032B0008FB7F8949927209116028FBF222341F0EF
:1032C0008FB7F89499272AE02093E7038FBF42C075
:1032D0008FB7F89499276091E0024091E2028FBF86
:1032E0008FB7F894282F332750E0909144038091B2
:1032F0004503981709F451E02FBF552341F5662384
:1033000031F55FB7F89482E08093E0028FB7F894CC
:10331000282F332740E0909144038091450398176C
:1033200009F441E02FBF442311F080E006C0E09192
:103330004503FF27EC5BFC4F82818093E10283E42D
:103340008093DB0210927003852F99270EC04150A5
:10335000423010F010E00BC08FB7F894992725E4A5
:103360002093DB0221E0209370038FBF11E07723CD
:1033700049F08FB7F8949927A0931F028FBF8FE071
:103380000E94B8018FB7F894E82EFF248091E703DC
:103390008A3009F4E9C0EFBE112309F4EAC02FB75F
:1033A000F89433271092BD061092BC061092D802F2
:1033B00081E08093E7032FBF0E949803882309F4DC
:1033C000D8C08FB7F894992729E02093E7038FBFDF
:1033D0000E94AC03CEC08091C1008F7B8093C1005E
:1033E0008091C1008F778093C1001092E603109204
:1033F000CC028091C10088608093C1008091C1009F
:1034000080618093C1008091C10080688093C10079
:103410008FB7F89499271092E7031092C9028FBFD3
:1034200010924303A6C08EE021CC8091C100877F1B
:103430008093C1008091C1008F7E8093C10099C0AC
:1034400010921C0210921B028FB7F89499272091BA
:103450001F028FBF80912002811123E04091190249
:1034600050911A0280912102882309F082C0222300
:1034700001F53FB7F89420917002E22FFF27EE0F7D
:10348000FF1FE45AFC4F808191814817590771F45E
:10349000822F8F5F809370028A3010F0109270023A
:1034A00080914303882311F010924303832F9927BF
:1034B0008FBF82E0DBCB8FB7F8949927209124024D
:1034C000309125024091A0028FBF8FB7F894E42F6E
:1034D000FF27EE0FFF1FE45FFD4F31832083209114
:1034E0001702442311F02B7F01C02D7F2093170278
:1034F0001092220299278FBF3CC090911706812F0E
:103500008923B9F0E42FFF27EE0FFF1FE05BFC4F8C
:103510002081318111821082812F80959823909390
:103520001706413031F421573240D9F40E94A301EB
:1035300018C04F5F4830E8F4110FDFCF80911202BE
:10354000E82FFF27EE0FFF1FE05BFC4F60817181CA
:1035500041E00E94F5130DC0C8010E947C048C015B
:103560003ECD110F42E0C9CF0E944503EFBE01C01E
:103570002FBF29960FB6F894DEBF0FBECDBFDF91E7
:10358000CF911F910F91FF90EF90DF90CF90BF9060
:10359000AF909F908F907F906F905F904F903F90F3
:1035A0002F9008958091E3058F3FB1F0282F3327A6
:1035B000F901E755FD4F80818093E3058F3F11F4BA
:1035C0008093B9068FEF80832F3F31F0822F0E94C6
:1035D0005F1481E090E0089580E090E00895FF920C
:1035E0000F931F93FFB6F89414BE88E10FB6F894BA
:1035F00080936000109260000FBE43E150E06FEFD7
:1036000070E089EA92E00E94361F8FEF8093E30515
:103610008093B90656985E9854985C9880916F0094
:103620008F7D80936F00209A289A279A2F980E9A60
:10363000169A84EE92E090936E0280936D0210923F
:10364000D3028AE58093C40281E08093810080E206
:103650008093B60083E08093B100809184009091C4
:1036600085004AE7209184003091850028173907AA
:1036700008F44150442311F0C901F4CF9091B200F5
:103680008091B2008917E1F3209184003091850088
:103690009091B2008091B2008917E1F3809184008B
:1036A00090918500821B930B4096F5E09695879547
:1036B000FA95E1F79093E5058093E4051092B10047
:1036C0008091B10080938100809181008093B60049
:1036D0001092B20010928500109284008FEF87BB89
:1036E00087B386BB8091B6008571E1F70A9A099A83
:1036F000089A129A119A109A18B88FEF87B90C98F5
:10370000149810929500109294008091710081603D
:103710008093710080919100887F826080939100F6
:10372000109285001092840080916F0081608093D8
:103730006F0080918100887F8260809381000E9469
:10374000D21A8823E1F712E006E06091E405709157
:10375000E50588279927ECE0660F771F881F991FDA
:10376000EA95D1F720E031EE40E050E00E94BE1E25
:10377000215030402093C400832F99278093C500A7
:103780001093C0000093C2001092C1002093CC009F
:103790008093CD001093C8000093CA001092C90016
:1037A00084E490E09093FB038093FA031092E0028C
:1037B0001092E2028AE08093E7031092D8021092FE
:1037C000DB02109216061092BD061092BC061092F3
:1037D000B306109270031092F5031092F40384E084
:1037E0008093C9021092ED03109208041092CD024A
:1037F00010925903109258031092450310924403FB
:103800008FEF8093D90280E00E94760A2091000217
:10381000309101022F5F3F4FC901AA27BB27809338
:10382000CF029093D002A093D102B093D2028DE147
:1038300096E090935C0280935B028F9690935E0279
:1038400080935D028BE796E09093600280935F0225
:103850008FEF9FEF9093FF038093FE0390930104FB
:1038600080930004909303048093020490930504D2
:1038700080930404909307048093060480910002CF
:103880008295807F809328028FEF8093C30280917E
:10389000B60080628093B6008091B60081FDFCCFB7
:1038A00082E08093B0008091B60080FDFCCF83E081
:1038B0008093B1008091B60083FDFCCF86EE8093AB
:1038C000B300809170008260809370000E94B60403
:1038D0000E94D21A8823E1F78F2D99278FBF789401
:1038E0001092AA061092AB061092AC061092AD068A
:1038F0000E941B1212988CE292E09093A202809395
:10390000A102ECE5F3E08DE094E0819391938F9632
:1039100023E0E037F207C9F71092700210926F02AD
:103920001092DA0281E0809343030E941B120E94EE
:103930002D0310926802109267020E941B128FB72B
:10394000F894482F552757C08091700099278370AD
:103950009070892B19F4E5E0F0E014C08091B60076
:103960008A71E1F78091B3009091B200891B8C308D
:1039700038F08091B200853F18F4E3E0F0E002C037
:10398000E2E0F0E080916E00867009F580916F00B2
:103990008E72E9F4809171008E72C9F40CB407FC48
:1039A00016C08091C100887191F48091C90088711E
:1039B00071F48091BC0082FD0AC080917A0087FF7B
:1039C00003C081E090E005C085E090E002C080E0A7
:1039D00090E023B78E1708F4E82FFF27EE50FD4F35
:1039E000E491207F2160E22BE3BF78948895F894DE
:1039F00083B78E7F83BF8091E3058F3F09F4A4CF07
:103A0000282F3327F901E755FD4F80818093E30587
:103A10008F3F11F48093B9068FEF80832F3F09F415
:103A200093CF4FBF822F0E945F1489CFACE2B0E0EA
:103A3000ECE1FDE10C94FF1E222E332E442E552E78
:103A4000662E772E882E992EFE013196A8E01192CF
:103A5000AA95E9F729823A824B825C826D827E8246
:103A60008F829886FE013996B8E01192BA95E9F7EF
:103A7000A986BA86CB86DC86ED86FE860F87188BF4
:103A800089819A81AB81BC8189A79AA7ABA7BCA782
:103A90007C018D018FEF9FEFA0E0B0E0E822F922DA
:103AA0000A231B2389A59AA5ABA5BCA51D01442407
:103AB000552489859A85AB85BC858DA39EA3AFA32C
:103AC000B8A75C016D018FEF9FEFA0E0B0E0A822E6
:103AD000B922CA22DB228DA19EA1AFA1B8A53D01CA
:103AE00088249924C801B701A60195010E94E01E0F
:103AF00069A37AA38BA39CA3C801B701A401930176
:103B00000E94E01E7B018C01C201B101A60195015A
:103B10000E94E01E5B016C01C201B101A40193018E
:103B20000E94E01E3B014C01EA0CFB1C0C1D1D1DFC
:103B300089A19AA1ABA1BCA19D01442755272E0DB7
:103B40003F1D401F511F2A153B054C055D0540F4E4
:103B500080E090E0A1E0B0E0680E791E8A1E9B1E16
:103B6000CA01AA27BB27860D971DA81DB91D8D8FD9
:103B70009E8FAF8FB8A3A9013327222789A19AA1CD
:103B8000ABA1BCA1A070B070280F391F4A1F5B1FEA
:103B9000298F3A8F4B8F5C8FA98CBA8CCB8CDC8CA5
:103BA000ED8CFE8C0F8D18A1FE01719698E011929C
:103BB0009A95E9F7ED8AFE8A0F8B188F2D813E8149
:103BC0004F8158856DA17EA18FA198A50E94E01E0E
:103BD0003B014C012D853E854F85588969A57AA505
:103BE0008BA59CA50E94E01E2D893E894F89588D8A
:103BF000260F371F481F591F260D371D481D591DF9
:103C00002D8B3E8B4F8B588F6D887E888F88988C3C
:103C10002A2D3B2D4C2D5D2D662D772D882D992D30
:103C2000E2E1AC960C941B1FA0E1B0E0EAE1FEE1FA
:103C30000C94FF1E222E332E442E552E662E772EE8
:103C4000882E992E002309F466C088E0FE01319683
:103C500011928A95E9F729833A834B835C836D83BC
:103C60007E838F829887E0E2E01B1E16CCF52D81C3
:103C70003E814F815885602F772767FD7095DA0167
:103C8000C901062E04C0B695A795979587950A9405
:103C9000D2F78D879E87AF87B88B04C0220F331F62
:103CA000441F551FEA95D2F789819A81AB81BC8167
:103CB00004C0B695A795979587956A95D2F7282B56
:103CC000392B4A2B5B2B29873A874B875C872984C2
:103CD0003A844B845C846D847E848F8498881BC076
:103CE0001D861E861F86188A2E2F332727FD3095A6
:103CF000309521953F4F8D819E81AF81B88504C05D
:103D0000B695A795979587952A95D2F789879A872B
:103D1000AB87BC87DCCF222D332D442D552D662D4E
:103D2000772D882D992DE2E160960C941B1FAA1B1C
:103D3000BB1B51E107C0AA1FBB1FA617B70710F096
:103D4000A61BB70B881F991F5A95A9F780959095C8
:103D5000BC01CD01089597FB092E07260AD077FDF7
:103D600004D0E5DF06D000201AF4709561957F4FEE
:103D70000895F6F7909581959F4F0895A1E21A2E28
:103D8000AA1BBB1BFD010DC0AA1FBB1FEE1FFF1FFF
:103D9000A217B307E407F50720F0A21BB30BE40B4F
:103DA000F50B661F771F881F991F1A9469F7609596
:103DB0007095809590959B01AC01BD01CF01089550
:103DC000629FD001739FF001829FE00DF11D649FFF
:103DD000E00DF11D929FF00D839FF00D749FF00D8B
:103DE000659FF00D9927729FB00DE11DF91F639F2C
:103DF000B00DE11DF91FBD01CF01112408952F92CF
:103E00003F924F925F926F927F928F929F92AF926A
:103E1000BF92CF92DF92EF92FF920F931F93CF93B7
:103E2000DF93CDB7DEB7CA1BDB0B0FB6F894DEBF4E
:103E30000FBECDBF09942A88398848885F846E8474
:103E40007D848C849B84AA84B984C884DF80EE80BE
:103E5000FD800C811B81AA81B981CE0FD11D0FB6C7
:103E6000F894DEBF0FBECDBFED010895DC0101C0A7
:0C3E70006D9341505040E0F70895FFCFE3
:103E7C000100010022FFFFFFFFFFFFFF8303B203DE
:043E8C0083030200AA
:00000001FF
